:1000000040C064C063C062C061C060C05FC05EC009
:100010005DC027C55BC05AC059C058C057C056C044
:1000200055C054C053C00000000000000000000391
:100030000406000000000000000001020408102077
:10004000408001020408102001020408102004046A
:100050000404040404040202020202020303030370
:1000600003030000000036003300300000000000F1
:100070003800350032000000000037003400310045
:10008000CB0211241FBECFE5D4E0DEBFCDBF10E010
:10009000A0E6B0E0EAEAFDE002C005900D92AE36BF
:1000A000B107D9F720E0AEE6B0E001C01D92A33F52
:1000B000B207E1F710E0C2E8D0E003C02297FE01EA
:1000C0006ED6C038D107D1F752D66DC699CF60E051
:1000D0008FED90E0CED38FED90E06BD42093D700DE
:1000E0003093D8004093D9005093DA006093DB003E
:1000F0007093DC008093DD009093DE0081E0820F3E
:1001000080937E0030938000409381008D3020F0FA
:100110002B5020937F0002C080937F008CE390E0FF
:10012000A0E0B0E08093C5009093C600A093C70004
:10013000B093C8008093AC009093AD00A093AE0044
:10014000B093AF008093930090939400A093950098
:10015000B09396008093C1009093C200A093C30017
:10016000B093C4008093A8009093A900A093AA0024
:10017000B093AB0080938F0090939000A093910078
:10018000B09392008FEF81BB88E387BB84BB089557
:100190000F931F9380916000882351F081E080933A
:1001A000740060E082E149D56091710083E145D53A
:1001B00080916000811108C01092740061E082E1BA
:1001C0003CD560E083E139D58EEB90E048D285EAFA
:1001D00090E045D28CE890E042D2E0917D00F0E0E2
:1001E000EF59FF4F808180937900E0917C00F0E02F
:1001F000EF59FF4F8081806880937800E0917B0009
:10020000F0E0EF59FF4F808180937700E0917A0012
:10021000F0E0EF59FF4F808180937600809160007D
:100220008823C1F080917F002AE0622FAAD58093B5
:100230007D0090937C0080918000A3D580937B000B
:1002400090937A0080918C0090918D00019711F429
:100250001092600080916000811195C08091BE0075
:100260009091BF00019729F480916F008F5F809378
:100270006F0080918C0090918D008F3F2FEF92073F
:1002800019F421E02093600020916F0021111DC01E
:100290008091A5009091A600019731F480916E00A5
:1002A00091E0892780936E0080916E0030918000EC
:1002B000811163C180917F002AE0622F62D5809313
:1002C0007D0090937C00832F47C0213029F5209139
:1002D000A5003091A6002130310529F420917F003E
:1002E000215020937F00019729F480917F008F5F38
:1002F00080937F00809170008823A1F180917F001E
:100300002AE0622F3ED580937D0090937C0020935D
:100310007B0020937A0037C0223071F52091A50030
:100320003091A6002130310529F420918000215020
:1003300020938000019729F4809180008F5F809343
:10034000800080917000882369F06AE060937D00EE
:1003500060937C008091800014D580937B00909303
:100360007A0011C08AE080937D0080937C008093A6
:100370007B0080937A0007C0233028F081E08093CF
:10038000720010926F00B7D38B019C0170938700AD
:10039000609386008091840090918500A801481B9D
:1003A000590B423351058CF1409182004F5F4093CD
:1003B0008200842F64E1E5D4911105C08091810011
:1003C0008F5F80938100842F65E0DBD4911106C09C
:1003D0008091710091E08927809371008091700075
:1003E00091E089278093700080917400882349F000
:1003F00080917300893111F4909375008F5F809321
:1004000073001093850000938400809181008C33E9
:1004100011F410928100809180008C3311F41092BD
:100420008000809180008F3F19F48BE380938000DF
:1004300080917F008D3019F481E080937F0080915E
:100440007F00811103C08CE080937F008091720057
:100450008823B1F060E08FED90E00BD260E08FED8B
:1004600090E017D260917F00615020E040918000C1
:100470008FED90E014D281E08093600010927200C2
:1004800080917500882399F018BA80E185BB11BA74
:1004900012BA85B78F78806285BF85B7806885BFBF
:1004A00085B7806885BF889585B78F7785BF2FD33F
:1004B00070938B0060938A002091880030918900AE
:1004C000621B730B643671050CF462C0809183006B
:1004D0008F5F843019F08093830002C010928300F4
:1004E0008091830081110DC088B3886388BBAB9A6B
:1004F0008091790082BB88B398E0892788BB85B357
:1005000085BB80918300813069F488B3886388BBA0
:10051000AB9A8091780082BB88B390E1892788BB31
:1005200085B385BB80918300823069F488B388638A
:1005300088BBAB9A8091770082BB88B390E2892711
:1005400088BB85B385BB80918300833069F488B311
:10055000886388BBAB9A8091760082BB88B388BBE6
:1005600085B398E0892785BB80918A0090918B00A4
:1005700090938900809388000BC02AE0832F622F1C
:1005800000D480937D0090937C0080918100E4CE24
:100590001F910F91089528E049E06AE08FED90E007
:1005A000D6D087ED90E0C5D021E040E060E18EEB51
:1005B00090E00CD021E040E06FE085EA90E006D0CA
:1005C00021E040E06EE08CE890E000C00F931F93C4
:1005D000CF93DF931F92CDB7DEB78C01862FF80142
:1005E0006787408B91E09427918B928B148A138AB2
:1005F000118210821282158A168A178A108E44E19F
:1006000050E060E070E043835483658376834AEF73
:1006100050E060E070E0478350876187728748EE62
:1006200053E060E070E0438754876587768760E039
:100630002983CAD2F8018089298181110AC0222325
:1006400041F061E087850F90DF91CF911F910F916D
:10065000F4C20F90DF91CF911F910F910895CF9227
:10066000DF92EF92FF920F931F93CF93DF93EC01F2
:1006700042D26B017C018F8515D321E0892B09F4CF
:1006800020E0298B8889811103C081E08227898B32
:10069000E9898A89E81721F0CD8ADE8AEF8AF88E07
:1006A0000D891E892F89388DB701A601401B510B7A
:1006B000620B730B0B811C812D813E810417150782
:1006C000260737075CF48A81E81741F0EA83EE23B6
:1006D00029F08B899C8901969C8B8B8B8A81811157
:1006E0000CC00F81188529853A8504171507260740
:1006F0003707ACF48B899C890EC00B851C852D8532
:100700003E8504171507260737074CF48B899C890B
:10071000919581959109998388831C8A1B8AEA8B1C
:10072000DF91CF911F910F91FF90EF90DF90CF90CD
:100730000895FC018AED97E09683858381E08483A8
:10074000838310821182128285E087830895CF937C
:10075000DF93EC01862F688349832A8361E034D2DA
:1007600061E08A81DF91CF912FC2FF920F931F9397
:10077000CF93DF93EC0160E0898126D200E010E0A6
:10078000F12C89818FD29927002E01C0880F0A94FD
:10079000EAF7F82A61E08A8150D281E090E0DBD16B
:1007A00060E08A814AD20F5F1F4F0830110549F778
:1007B0008F2DDF91CF911F910F91FF9008950F938F
:1007C0001F93CF93DF931F92CDB7DEB78C01262FF7
:1007D00061E0FC0181812983F7D1298140E0F801A2
:1007E000628181810F90DF91CF911F910F9182C221
:1007F0001F93CF93DF93EC01162F60E08A811DD207
:1008000061E088811AD2612F660F6168CE01D7DF5F
:10081000CE01ABDF182F60E088810FD2812FDF91EE
:10082000CF911F910895EF92FF921F93CF93DF9383
:100830001F92CDB7DEB77C01162F60E0FC018281EC
:100840004983FBD161E0F7018081F7D1612F660F09
:100850006068C701B4DF4981642FC701B0DF60E081
:10086000F70180810F90DF91CF911F91FF90EF9062
:10087000E4C11F93CF93DF93EC01162F60E0B8DF44
:10088000482F10FB47F960E0CE01DF91CF911F9117
:10089000CACF462F47954427479567E0C4CFEF92CC
:1008A000FF920F931F93CF93DF931F92CDB7DEB7C5
:1008B0007C01862F042F683170F54C3360F52C33A2
:1008C00050F51AE0612F5DD2492F30E1839F400D32
:1008D000112462E0C7012983A6DF802F612F51D246
:1008E000492FE0E18E9F400D112461E0C7019BDF9D
:1008F0002981822F612F45D2492FF0E18F9F400D32
:10090000112460E0C7010F90DF91CF911F910F91EB
:10091000FF90EF9088CF0F90DF91CF911F910F91B3
:10092000FF90EF9008950F931F93CF93DF93EC0107
:1009300060E08A8182D161E088817FD16FEBCE0156
:100940003EDF00E010E0CE0110DFFE01E00FF11FFE
:1009500083830F5F1F4F08301105A9F760E088817E
:10096000DF91CF911F910F9168C1962F9695969523
:1009700096959E70292F220F220F290F862F8F7098
:10098000820F0895962F9F7067FF09C065FB662749
:1009900060F9892F2CE0629F800D11240895607307
:1009A000669566956695862F880F880F860F890F46
:1009B00008950F931F93CF93DF93CDB7DEB7609762
:1009C0000FB6F894DEBF0FBECDBF8C01CE010996E5
:1009D000B0DEC801A8DFF8016381C801C6DF8B87DC
:1009E000F8016481C801C1DF8A87F8016581C80107
:1009F000C9DF8987F8016681C801B7DF8C87F801F4
:100A00006781C801B2DF8D87F8018085888B818579
:100A1000982F92959F708F70FAE09F9F800D112400
:100A200090E08053984F9F878E8788E0FE0139962B
:100A3000DE01119601900D928A95E1F729813A81A4
:100A40004B815C816D817E818F81988560960FB628
:100A5000F894DEBF0FBECDBFDF91CF911F910F91F4
:100A600008951F920F920FB60F9211242F933F9368
:100A70008F939F93AF93BF938091EB009091EC0085
:100A8000A091ED00B091EE003091EA0020E3230F39
:100A90002D3720F44096A11DB11D05C023EB230F77
:100AA0004196A11DB11D2093EA008093EB00909325
:100AB000EC00A093ED00B093EE008091EF009091D8
:100AC000F000A091F100B091F2000196A11DB11DBE
:100AD0008093EF009093F000A093F100B093F200A8
:100AE000BF91AF919F918F913F912F910F900FBE2A
:100AF0000F901F9018952FB7F8946091EB007091AC
:100B0000EC008091ED009091EE002FBF08953FB76B
:100B1000F8948091EF009091F000A091F100B091D5
:100B2000F20022B708B600FE05C02F3F19F001966B
:100B3000A11DB11D3FBF6627782F892F9A2F620F05
:100B4000711D811D911D46E0660F771F881F991F3B
:100B50004A95D1F708958130910539F0029729F02F
:100B6000880F991F01970197F1F70895789483B73B
:100B7000826083BF83B7816083BF89B7816089BF8B
:100B80001EBC8EB582608EBD8FB581608FBD85B570
:100B9000846085BD85B5806485BD329A319A309A6E
:100BA000379A1AB80895843039F0863049F0833086
:100BB00051F48FB58F7702C08FB58F7D8FBD0895AB
:100BC00085B58F7D85BD0895CF93DF9390E0FC01BF
:100BD000E65CFF4F2491FC01E25BFF4F8491882388
:100BE00049F190E0880F991FFC01EA58FF4FA59149
:100BF000B49184599F4FFC01C591D4919FB7611165
:100C000008C0F8948C91209582238C93888182234C
:100C10000AC0623051F4F8948C91322F30958323BE
:100C20008C938881822B888304C0F8948C91822BCA
:100C30008C939FBFDF91CF9108950F931F93CF9314
:100C4000DF931F92CDB7DEB7282F30E0F901EA5DC0
:100C5000FF4F8491F901E65CFF4F1491F901E25BCB
:100C6000FF4F04910023C1F0882319F069839BDFB3
:100C70006981E02FF0E0EE0FFF1FE459FF4FA591CF
:100C8000B4919FB7F8948C91611103C010958123A2
:100C900001C0812B8C939FBF0F90DF91CF911F914B
:100CA0000F910895CF93DF93282F30E0F901EA5D8B
:100CB000FF4F8491F901E65CFF4FD491F901E25BAB
:100CC000FF4FC491CC2389F081116DDFEC2FF0E050
:100CD000EE0FFF1FEE59FF4FA591B4912C912D23DC
:100CE00081E090E021F480E002C080E090E0DF91BC
:100CF000CF910895BF92CF92DF92EF92FF920F9320
:100D00001F93CF93DF93C82ED62EB42EC7E0D0E02A
:100D1000022F10E087E0E82EF12CB1100AC0F70195
:100D2000EC1BFD0BB80102C075956795EA95E2F7DB
:100D300007C0B8010C2E02C0759567950A94E2F7BA
:100D4000617077278C2D79DF61E08D2D76DF60E093
:100D50008D2D73DF219708F7DF91CF911F910F91B0
:100D6000FF90EF90DF90CF90BF9008950895FEDE42
:100D7000FDDFADD9C0E0D0E00BDA2097E9F340D930
:100D8000FBCF991B79E004C0991F961708F0961BBA
:100D9000881F7A95C9F780950895EE0FFF1F05907B
:0A0DA000F491E02D0994F894FFCFC0
:0E0DAA00013F065B4F666D7D077F6F00800086
:00000001FF
