:100000003AC054C053C052C051C050C04FC04EC07F
:100010004DC0CBC54BC04AC049C048C047C046C010
:1000200045C044C043C000000000000000000003C1
:100030000406000000000000000001020408102077
:10004000408001020408102001020408102004046A
:100050000404040404040202020202020303030370
:1000600003030000000038003500320000000000EB
:1000700037003400310011241FBECFE5D4E0DEBFCD
:10008000CDBF10E0A0E6B0E0EEE6FFE002C00590D4
:100090000D92A23BB107D9F720E0A2EBB0E001C07E
:1000A0001D92AD3CB207E1F776D65FC7A9CFCF93DB
:1000B000DF93CDE9D0E061E08991FED580E0C13BDE
:1000C000D807C9F7DF91CF910895CF92DF92EF92D1
:1000D000FF920F931F93CF93DF93B1D56093BE0030
:1000E0007093BF008093C0009093C1000091BA004C
:1000F0001091BB002091BC003091BD006B017C01D0
:10010000C01AD10AE20AF30A48EEC41643E0D40644
:10011000E104F10468F02091C2002F5F2093C20037
:100120006093BA007093BB008093BC009093BD00B5
:1001300086D56093B6007093B7008093B800909313
:10014000B9000091B2001091B3002091B400309139
:10015000B5006B017C01C01AD10AE20AF30A0091D2
:10016000640010E020E030E0C016D106E206F3069D
:1001700068F02091C3002F5F2093C3006093B2000A
:100180007093B3008093B4009093B50080916500A4
:1001900090916600892BE1F5E0916700F09168008D
:1001A000EE0FFF1FE759FF4F808180936400E091BD
:1001B000C300F0E0E258FF4F61E08081B6D5E091E6
:1001C000C300F0E0ED58FF4F61E08081AED5809133
:1001D000C3008B30E9F4CDE9D0E060E08991A5D58A
:1001E00080E0C13BD807C9F71092C30065E070E01A
:1001F00080E090E0DAD5709368006093670064E176
:1002000070E080E090E0D1D5709366006093650067
:1002100080916500909166000197A1F5E0916700DB
:10022000F0916800EE0FFF1FE759FF4F8081809328
:100230006400E091C300F0E0E356FF4F61E080818D
:1002400074D58091C3008431E9F4CDE9D0E060E059
:1002500089916BD540E0C13BD407C9F71092C30028
:1002600065E070E080E090E0A0D570936800609356
:10027000670064E170E080E090E097D570936600DD
:100280006093650080916500909166000297B9F5D2
:10029000E0916700F0916800EE0FFF1FE759FF4FF4
:1002A0008081809364008091C300E3E1F0E0E81B6B
:1002B000F109E356FF4F61E0808137D58091C3009B
:1002C0008431E9F4CDE9D0E060E089912ED580E079
:1002D000C13BD807C9F71092C30065E070E080E029
:1002E00090E063D5709368006093670064E170E00C
:1002F00080E090E05AD5709366006093650080912D
:10030000650090916600039709F042C0E091670094
:10031000F0916800EE0FFF1FE759FF4F8081809337
:1003200064008091C300CBE0D0E0DE01A81BB109DE
:10033000A258BF4F61E08C91F8D48091C300FE01B8
:10034000E81BF109ED58FF4F61E08081EED4809108
:10035000C3008B30E9F4CDE9D0E060E08991E5D4C9
:1003600040E0C13BD407C9F71092C30065E070E0DC
:1003700080E090E01AD5709368006093670064E1B4
:1003800070E080E090E011D57093660060936500A6
:100390008091650090916600049709F040C084E662
:1003A000809364008091C30080FF05C08091C300EA
:1003B00080FD0BC013C0CDE9D0E061E08991B5D4D8
:1003C00080E0C13BD807C9F7F1CFCDE9D0E060E0CC
:1003D0008991ABD440E0C13BD407C9F78091C300F9
:1003E0008431E9F4CDE9D0E060E089919ED480E0E9
:1003F000C13BD807C9F71092C30065E070E080E008
:1004000090E0D3D4709368006093670064E170E07B
:1004100080E090E0CAD4709366006093650080919C
:10042000650090916600059709F044C084E68093CA
:1004300064008091C30063E0DAD4992339F080919D
:10044000C30063E0D4D491110BC013C0CDE9D0E058
:1004500060E089916AD440E0C13BD407C9F7EFCF8F
:10046000CDE9D0E061E0899160D480E0C13BD8075C
:10047000C9F78091C3008431E9F4CDE9D0E060E0B0
:10048000899153D440E0C13BD407C9F71092C3000F
:1004900065E070E080E090E088D47093680060933D
:1004A000670064E170E080E090E07FD470936600C4
:1004B000609365008091650090916600069709F051
:1004C00044C084E6809364008091C30065E08FD4CB
:1004D000992339F08091C30065E089D491110BC054
:1004E00013C0CDE9D0E061E089911FD480E0C13B29
:1004F000D807C9F7EFCFCDE9D0E060E0899115D4F6
:1005000040E0C13BD407C9F78091C3008E31E9F4C4
:10051000CDE9D0E060E0899108D480E0C13BD80704
:10052000C9F71092C30065E070E080E090E03DD430
:10053000709368006093670064E170E080E090E091
:1005400034D470936600609365008091650090914B
:100550006600079769F584E680936400CDE9D0E0F2
:1005600061E08991E2D340E0C13BD407C9F78091B3
:10057000C3008E31E9F4CDE9D0E060E08991D5D3B4
:1005800080E0C13BD807C9F71092C30065E070E076
:1005900080E090E00AD4709368006093670064E1A3
:1005A00070E080E090E001D4709366006093650095
:1005B0008091650090916600089769F584E68093C4
:1005C0006400CDE9D0E060E08991AFD340E0C13B69
:1005D000D407C9F78091C3008A30E9F4CDE9D0E0AF
:1005E00060E08991A2D380E0C13BD807C9F710929F
:1005F000C30065E070E080E090E0D7D370936800BE
:100600006093670064E170E080E090E0CED3709387
:10061000660060936500809165009091660009977F
:1006200071F584E680936400CDE9D0E061E08881D3
:100630007CD3229640E0C13BD407C1F78091C30030
:100640008A30E9F4CDE9D0E060E089916ED380E0B2
:10065000C13BD807C9F71092C30065E070E080E0A5
:1006600090E0A3D3709368006093670064E170E04A
:1006700080E090E09AD3709366006093650080916B
:100680006500909166000A9709F056C084E6809351
:1006900064008091C30080FF05C08091C30080FD8D
:1006A00016C029C0CDE9D0E061E088813ED3229612
:1006B00040E0C13BD407C1F7CEE9D0E060E08881DB
:1006C00034D3229680E0C23BD807C1F7E6CFCDE90C
:1006D000D0E060E0888129D3229640E0C13BD40776
:1006E000C1F7CEE9D0E061E088811FD3229680E097
:1006F000C23BD807C1F78091C3008E31E9F4CDE940
:10070000D0E060E0899111D340E0C13BD407C9F744
:100710001092C30065E070E080E090E046D37093F3
:1007200068006093670064E170E080E090E03DD392
:1007300070936600609365008091650090916600FB
:100740000B9771F584E680936400CEE9D0E061E018
:100750008881EBD2229680E0C23BD807C1F7809116
:10076000C3008A30E9F4CDE9D0E060E08991DDD2C0
:1007700040E0C13BD407C9F71092C30065E070E0C8
:1007800080E090E012D3709368006093670064E1AA
:1007900070E080E090E009D370936600609365009C
:1007A00080916500909166000C97B1F5E09167002B
:1007B000F0916800EE0FFF1FE759FF4F8081809393
:1007C0006400E091C300E0FD06C0F0E0E356FF4F97
:1007D00061E08081AAD28091C3008431E9F4CDE93F
:1007E000D0E060E08991A1D280E0C13BD807C9F791
:1007F0001092C30065E070E080E090E0D6D2709384
:1008000068006093670064E170E080E090E0CDD222
:10081000709366006093650080916500909166001A
:100820000D97C9F5E0916700F0916800EE0FFF1F8A
:10083000E759FF4F8081809364008091C30080FF5F
:1008400009C0E3E1F0E0E81BF109E356FF4F61E086
:1008500080816BD28091C3008431E9F4CDE9D0E08E
:1008600060E0899162D240E0C13BD407C9F71092A1
:10087000C30065E070E080E090E097D2709368007C
:100880006093670064E170E080E090E08ED2709346
:1008900066006093650080916500909166000E97F8
:1008A000F1F5E0916700F0916800EE0FFF1FE75946
:1008B000FF4F808180936400E091C300E0FD0EC093
:1008C000F0E0E258FF4F61E080812FD2E091C30059
:1008D000F0E0ED58FF4F61E0808127D28091C300A6
:1008E0008B30E9F4CDE9D0E060E089911ED280E060
:1008F000C13BD807C9F71092C30065E070E080E003
:1009000090E053D2709368006093670064E170E0F8
:1009100080E090E04AD27093660060936500809119
:100920006500909166000F9709F044C0E091670060
:10093000F0916800EE0FFF1FE759FF4F8081809311
:1009400064008091C30080FF14C0CBE0D0E0DE01E2
:10095000A81BB109A258BF4F61E08C91E6D18091EC
:10096000C300FE01E81BF109ED58FF4F61E08081F3
:10097000DCD18091C3008B30E9F4CDE9D0E060E0B8
:100980008991D3D140E0C13BD407C9F71092C3008D
:1009900065E070E080E090E008D2709368006093BA
:1009A000670064E170E080E090E0FFD17093660042
:1009B0006093650080916500909166004097A1F575
:1009C000E0916700F0916800EE0FFF1FE759FF4FBD
:1009D000808180936400E091C300F0E0E757FF4F0F
:1009E00061E08081A2D18091C3008431E9F4CDE936
:1009F000D0E060E0899199D180E0C13BD807C9F788
:100A00001092C30065E070E080E090E0CED170937A
:100A100068006093670064E170E080E090E0C5D119
:100A20007093660060936500809165009091660008
:100A30004197B9F5E0916700F0916800EE0FFF1F54
:100A4000E759FF4F8081809364008091C300E3E108
:100A5000F0E0E81BF109E757FF4F61E0808165D1C5
:100A60008091C3008431E9F4CDE9D0E060E0899160
:100A70005CD140E0C13BD407C9F71092C30065E0E8
:100A800070E080E090E091D170936800609367001F
:100A900064E170E080E090E088D17093660060933C
:100AA000650080916500909166004297C9F5E091DC
:100AB0006700F0916800EE0FFF1FE759FF4F80813C
:100AC000809364008091C30080FF09C0E3E1F0E0FF
:100AD000E81BF109E757FF4F61E0808126D1809143
:100AE000C3008431E9F4CDE9D0E060E089911DD103
:100AF00080E0C13BD807C9F71092C30065E070E001
:100B000080E090E052D1709368006093670064E1E8
:100B100070E080E090E049D17093660060936500DA
:100B200080916500909166004397B1F5E091670070
:100B3000F0916800EE0FFF1FE759FF4F808180930F
:100B40006400E091C300E0FD06C0F0E0E757FF4F0E
:100B500061E08081EAD08091C3008431E9F4CDE97D
:100B6000D0E060E08991E1D040E0C13BD407C9F713
:100B70001092C30065E070E080E090E016D17093C1
:100B800068006093670064E170E080E090E00DD160
:100B90007093660060936500DF91CF911F910F9174
:100BA000FF90EF90DF90CF9008951F920F920FB6B5
:100BB0000F9211242F933F938F939F93AF93BF93E3
:100BC0008091C5009091C600A091C700B091C80067
:100BD0003091C40026E0230F2D3720F40296A11D8A
:100BE000B11D05C029E8230F0396A11DB11D209357
:100BF000C4008093C5009093C600A093C700B09333
:100C0000C8008091C9009091CA00A091CB00B0911A
:100C1000CC000196A11DB11D8093C9009093CA001C
:100C2000A093CB00B093CC00BF91AF919F918F91D7
:100C30003F912F910F900FBE0F901F9018952FB7D7
:100C4000F8946091C5007091C6008091C7009091A2
:100C5000C8002FBF0895789483B7826083BF83B79D
:100C6000816083BF89B7816089BF1EBC8EB58260F9
:100C70008EBD8EB581608EBD8FB581608FBD85B50F
:100C8000846085BD85B5806485BD329A319A309A7D
:100C9000379A1AB80895843039F0863049F0833095
:100CA00051F48FB58F7702C08FB58F7D8FBD0895BA
:100CB00085B58F7D85BD0895CF93DF9390E0FC01CE
:100CC000E65CFF4F2491FC01E25BFF4F8491882397
:100CD00049F190E0880F991FFC01E459FF4FA5915D
:100CE000B4918E599F4FFC01C591D4919FB761116A
:100CF00008C0F8948C91209582238C93888182235C
:100D00000AC0623051F4F8948C91322F30958323CD
:100D10008C938881822B888304C0F8948C91822BD9
:100D20008C939FBFDF91CF9108950F931F93CF9323
:100D3000DF931F92CDB7DEB7282F30E0F901EA5DCF
:100D4000FF4F8491F901E65CFF4F1491F901E25BDA
:100D5000FF4F04910023C1F0882319F069839BDFC2
:100D60006981E02FF0E0EE0FFF1FEE59FF4FA591D4
:100D7000B4919FB7F8948C91611103C010958123B1
:100D800001C0812B8C939FBF0F90DF91CF911F915A
:100D90000F91089508955FDFFDDF89D9C0E0D0E0AD
:100DA00094D92097E9F32CD9FBCFCF93DF9300D0D0
:100DB00000D0CDB7DEB79B01AC016115710581058F
:100DC000910559F069833A834B835C83BBD02981B9
:100DD0003A814B815C8117D003C060E070E0CB01A9
:100DE0000F900F900F900F90DF91CF910895991B66
:100DF00079E004C0991F961708F0961B881F7A9512
:100E0000C9F780950895052E97FB16F400940FD02E
:100E100057FD05D01ED007FC02D046F408C05095FF
:100E20004095309521953F4F4F4F5F4F08959095D6
:100E30008095709561957F4F8F4F9F4F08952BD070
:100E4000A59F900DB49F900DA49F800D911D11241E
:100E50000895A1E21A2EAA1BBB1BFD010DC0AA1FFB
:100E6000BB1FEE1FFF1FA217B307E407F50720F013
:100E7000A21BB30BE40BF50B661F771F881F991F8E
:100E80001A9469F760957095809590959B01AC01D7
:100E9000BD01CF010895A29FB001B39FC001A39FE0
:100EA00001D0B29F700D811D1124911D08958F9264
:100EB0009F92AF92BF92CF92DF92EF92FF92CF9329
:100EC000DF93EC01688179818A819B8161157105CD
:100ED0008105910521F464E279ED8BE597E02DE140
:100EE00033EF41E050E08FDF49015A019B01AC0133
:100EF000A7EAB1E4A4DF6B017C01ACEEB4EFA5017D
:100F000094012FD0C60ED71EE81EF91EF7FE06C0AC
:100F100081E0C81AD108E10880E8F80AC882D982BD
:100F2000EA82FB82C701B6019F77DF91CF91FF90E4
:100F3000EF90DF90CF90BF90AF909F908F900895EB
:100F4000B6DF089580E690E0B2DF08956093600018
:100F50007093610080936200909363000895B7FFDF
:0E0F60006ECF6DDF821B930B0895F894FFCFC8
:100F6E0001000000640A000200140032006400C890
:100F7E000090010E0D0C0B0A0908070605040E0F52
:100F8E001011121300010203040405060708090AD2
:100F9E000B0C0D0E0F10111213000102030E0F1089
:100FAE00111213000102030405060708090A0B0CAF
:020FBE000D0024
:00000001FF
