:1000000027C04BC04AC049C048C0F0C246C045C026
:1000100044C043C042C041C040C03FC03EC00102D6
:100020000000040000000000010204081020200469
:100030001008020202020202020202020000000094
:1000400036000000000038000000000037003702D2
:1000500011241FBECFE5D2E0DEBFCDBF10E0A0E689
:10006000B0E0EAE9F8E002C005900D92A836B107C9
:10007000D9F720E0A8E6B0E001C01D92A63BB20788
:10008000E1F710E0C0E5D0E003C02297FE01FFD306
:10009000CE34D107D1F7EFD3FEC3B2CF0F931F9366
:1000A000CF93DF9361E082E050D388E290E0A0E05C
:1000B000B0E080939B0090939C00A0939D00B09330
:1000C0009E008093820090938300A0938400B0935D
:1000D00085008EE190E0A0E0B0E0809397009093DF
:1000E0009800A0939900B0939A0080937E0090931B
:1000F0007F00A0938000B0938100C2E3D0E008EEBF
:1001000013E080916000882309F47CC084E990E0CA
:1001100003D28BE790E000D2BFD27093720060935D
:10012000710020916F0030917000AB01421B530BA6
:10013000209164003091650042175307DCF121E003
:1001400030916A00311120E020936A00213029F4B7
:1001500020916D002F5F20936D0020916D0021355F
:1001600039F410926D0020916C002F5F20936C0089
:1001700020916C002A3048F010926C0021E0309100
:100180006900311120E02093690020916D00203535
:1001900049F420916900213029F4109365000093FF
:1001A000640004C0D0936500C09364007093700035
:1001B00060936F0060916A0082E000D380917B00C1
:1001C00090917C00019729F480916D008F5F80935E
:1001D0006D0080919400909195008130910531F4EB
:1001E00080916D00815080936D008BCF019609F056
:1001F00088CF1092600010926C0010926A001092EA
:1002000069007FCFDF91CF911F910F91089584E90D
:1002100090E082D18BE790E07FD120917B003091FC
:100220007C002F3F4FEF340729F4809168008F5FE7
:100230008093680080919400909195008F3F5FEFCC
:10024000950711F41092680040916800413081F4E4
:100250002130310529F42091610021502093610063
:100260000197E1F4809161008F5F8093610016C077
:10027000423081F42130310529F42091620021506F
:1002800020936200019751F4809162008F5F809308
:10029000620004C0433011F410926800FDD17093E5
:1002A0007A00609379002091770030917800AB015B
:1002B000421B530B20916600309167004217530791
:1002C0000CF472C020916E0031E0232720936E0061
:1002D000222329F020916D002F5F20936D00209143
:1002E0006D00213539F410926D0020916C002F5F64
:1002F00020936C0020916C00243110F010926C005F
:1003000020916800211127C0E0916D004E2F50E030
:100310002091630030E02150310942175307B9F1B1
:100320002091610030E0215031094217530721F438
:1003300020916A00213059F12091620030E0255C63
:100340003F4F4217530721F420916A002130F9F002
:10035000E03501F51CC0213049F440916D0050E0BA
:100360002091610030E0215031090AC02230C1F4EF
:1003700040916D0050E02091620030E0255C3F4FDD
:100380004217530739F420916A00213019F428EEFE
:1003900033E002C021E030E0309367002093660034
:1003A000709378006093770060916E0082E006D2CF
:1003B00067D170937600609375002091730030913F
:1003C0007400AB01421B530B4436510584F021E00D
:1003D00030916A00311120E020936A0020916B0077
:1003E0002F5F20936B007093740060937300809173
:1003F0006B008A3071F4809163008F5F809363009B
:1004000010926B0081E090916900911180E08093DF
:100410006900809163008D3341F4809161008F5FAA
:100420008093610081E080936300809161008D334F
:1004300041F4809162008F5F8093620081E080933D
:100440006100809162008D3019F481E08093620038
:1004500080916100811103C08CE3809361008091E1
:100460006200811103C08CE080936200089521E056
:1004700040E063E084E990E006D021E040E064E001
:100480008BE790E000C00F931F93CF93DF931F92F1
:10049000CDB7DEB78C01862FF8016787408B91E0DE
:1004A0009427918B928B148A138A11821082128264
:1004B000158A168A178A108E44E150E060E070E0D9
:1004C00043835483658376834AEF50E060E070E0B5
:1004D000478350876187728748EE53E060E070E0A1
:1004E000438754876587768760E029832ED1F8019A
:1004F0008089298181110AC0222341F061E087852A
:100500000F90DF91CF911F910F9158C10F90DF9104
:10051000CF911F910F910895CF92DF92EF92FF92AA
:100520000F931F93CF93DF93EC01AAD06B017C0153
:100530008F8579D121E0892B09F420E0298B8889E6
:10054000811103C081E08227898BE9898A89E817B4
:1005500021F0CD8ADE8AEF8AF88E0D891E892F89D7
:10056000388DB701A601401B510B620B730B0B8139
:100570001C812D813E8104171507260737075CF47F
:100580008A81E81741F0EA83EE2329F08B899C8960
:1005900001969C8B8B8B8A8181110CC00F811885F1
:1005A00029853A850417150726073707ACF48B8988
:1005B0009C890EC00B851C852D853E85041715076B
:1005C000260737074CF48B899C8991958195910971
:1005D000998388831C8A1B8AEA8BDF91CF911F91B4
:1005E0000F91FF90EF90DF90CF9008951F920F92A0
:1005F0000FB60F9211242F933F938F939F93AF9336
:10060000BF938091AE009091AF00A091B000B091E7
:10061000B1003091AD0026E0230F2D3720F4029673
:10062000A11DB11D05C029E8230F0396A11DB11D11
:100630002093AD008093AE009093AF00A093B000E4
:10064000B093B1008091B2009091B300A091B4003A
:10065000B091B5000196A11DB11D8093B200909399
:10066000B300A093B400B093B500BF91AF919F9138
:100670008F913F912F910F900FBE0F901F90189563
:100680002FB7F8946091AE007091AF008091B000E8
:100690009091B1002FBF08953FB7F8948091B200B8
:1006A0009091B300A091B400B091B50022B708B604
:1006B00001FE05C02F3F19F00196A11DB11D3FBFDE
:1006C0006627782F892F9A2F620F711D811D911D2A
:1006D00043E0660F771F881F991F4A95D1F7089549
:1006E00078948AB582608ABD8AB581608ABD83B7F5
:1006F000826083BF83B7816083BF89B7826089BF0F
:1007000080B7826080BF80B7816080BF329A319AA3
:10071000309A379A0895823081F018F4813051F080
:100720000895833019F0843009F008958CB58F7DD9
:100730008CBD08958AB58F7702C08AB58F7D8ABD3A
:1007400008958CB580648CBD0895CF93DF9390E0BD
:10075000FC01E85DFF4F2491FC01EE5CFF4F8491AA
:10076000882349F190E0880F991FFC01E85BFF4F57
:10077000A591B4918E5B9F4FFC01C591D4919FB719
:10078000611108C0F8948C91209582238C93888104
:1007900082230AC0623051F4F8948C91322F309544
:1007A00083238C938881822B888304C0F8948C9156
:1007B000822B8C939FBFDF91CF9108950F931F934E
:1007C000CF93DF931F92CDB7DEB7282F30E0F9012A
:1007D000E25EFF4F8491F901E85DFF4F1491F9014A
:1007E000EE5CFF4F04910023C1F0882319F0698368
:1007F00092DF6981E02FF0E0EE0FFF1FEE5BFF4F0D
:10080000A591B4919FB7F8948C91611103C0109594
:10081000812301C0812B8C939FBF0F90DF91CF91DB
:100820001F910F910895CF93DF93282F30E0F901A6
:10083000E25EFF4F8491F901E85DFF4FD491F90129
:10084000EE5CFF4FC491CC2389F0811164DFEC2F63
:10085000F0E0EE0FFF1FE45CFF4FA591B4912C91E7
:100860002D2381E090E021F480E002C080E090E060
:10087000DF91CF91089534DF64DF10DCC0E0D0E079
:10088000C6DC2097E9F3BCDBFBCFEE0FFF1F059022
:0A089000F491E02D0994F894FFCFD5
:08089A000101011E0100010033
:00000001FF
